:100000000C945D000C94D9030C94B2030C948500FD
:100010000C9485000C9485000C9485000C9485004C
:100020000C9485000C9485000C9485000C9485003C
:100030000C9485000C9400040C9485000C948500AD
:100040000C9468030C9485000C9485000C94850036
:100050000C9485000C9485000C9485000C9485000C
:100060000C9485000C9485000000000025002800F9
:100070002B0000000008000201000003040700003C
:1000800000000000000000000000240027002A00FB
:10009000010204081020408001020408102001021F
:1000A00004081020040404040404040402020202EC
:1000B0000202030303030303440411241FBECFEF12
:1000C000D8E0DEBFCDBF11E0A0E0B1E0EAEEFCE099
:1000D00002C005900D92A430B107D9F722E0A4E048
:1000E000B1E001C01D92A731B207E1F710E0CDE504
:1000F000D0E004C02197FE010E946D06CC35D107E7
:10010000C9F70E94A6040C9473060C94000090E0BA
:10011000FC01EE58FF4F3491FC01E057FF4F249152
:10012000FC01EC55FF4FE491EE2309F43BC033236F
:1001300039F1333091F038F43130A9F0323001F533
:1001400084B58F7D12C0373091F03830A1F0343053
:10015000B9F4809180008F7D03C0809180008F77FB
:10016000809380000DC084B58F7784BD09C08091D5
:10017000B0008F7703C08091B0008F7D8093B00076
:10018000F0E0EE0FFF1FE859FF4FA591B4918FB734
:10019000F894EC91611103C020952E2301C02E2B01
:1001A0002C938FBF0895CF93DF9390E0FC01E0572D
:1001B000FF4F2491FC01EC55FF4F8491882361F19E
:1001C00090E0880F991FFC01EA57FF4FC591D49129
:1001D000FC01E859FF4FA591B491611109C09FB787
:1001E000F8948881209582238883EC912E230BC07C
:1001F000623061F49FB7F8943881822F8095832311
:100200008883EC912E2B2C939FBF06C08FB7F89458
:10021000E8812E2B28838FBFDF91CF9108951F9304
:10022000CF93DF93182FEB0161E00E94D30020975A
:1002300011F460E004C0CF3FD10539F461E0812FB3
:10024000DF91CF911F910C948700E12FF0E0EE58E1
:10025000FF4FE491E330F9F048F4E130B9F0E230D7
:10026000A1F584B5806284BDC8BD34C0E730E9F033
:10027000E83019F1E43049F5809180008062809384
:100280008000D0938B00C0938A0024C084B580681E
:1002900084BDC7BD1FC080918000806880938000AE
:1002A000D0938900C093880015C08091B000806809
:1002B0008093B000C093B3000DC08091B000806205
:1002C0008093B000C093B40005C0C038D1050CF0D5
:1002D000B5CFAFCFDF91CF911F9108953FB7F8947D
:1002E00080918B0190918C01A0918D01B0918E0134
:1002F00026B5A89B05C02F3F19F00196A11DB11D81
:100300003FBFBA2FA92F982F8827820F911DA11DBB
:10031000B11DBC01CD0142E0660F771F881F991FF8
:100320004A95D1F708958F929F92AF92BF92CF9244
:10033000DF92EF92FF926B017C010E946E014B01F4
:100340005C01C114D104E104F104F1F00E946E01DA
:10035000DC01CB0188199909AA09BB09883E9340A1
:10036000A105B10570F321E0C21AD108E108F10836
:1003700088EE880E83E0981EA11CB11CC114D10424
:10038000E104F10419F7DDCFFF90EF90DF90CF90FB
:10039000BF90AF909F908F90089508950F931F93F3
:1003A000CF93DF938B01EA01BC0183E00E940F0130
:1003B000B80184E00E940F01BE0185E0DF91CF917A
:1003C0001F910F910C940F018EBD00000DB407FE1C
:1003D000FDCF8EB508950F931F93CF93DF938C01BC
:1003E000CFE0D2E060E08A810E948700C80123E06C
:1003F000969587952A95E1F780680E94E401802F01
:100400008295880F807E0E94E40180E00E94E401D2
:10041000182F61E08A810E948700812FDF91CF91A0
:100420001F910F9108950F931F93CF93DF93C82FC0
:10043000D62F0FE012E060E0F80182810E94870071
:10044000CC0F8C2F8E7781600E94E4018D2F0E944B
:10045000E40161E0F8018281DF91CF911F910F915A
:100460000C948700FF920F931F93CF93DF93EC01BF
:10047000F62E0FE012E060E0F80182810E94870012
:10048000CE0123E0969587952A95E1F780680E9432
:10049000E4018C2F8295880F807E80610E94E401A8
:1004A0008F2D0E94E40161E0F8018281DF91CF91FC
:1004B0001F910F91FF900C948700AF92BF92CF9243
:1004C000DF92FF920F931F93CF93DF9360E08091B1
:1004D00011020E94870082E60E94E40180E00E94EF
:1004E000E401F82E61E0809111020E948700F3FE82
:1004F00059C090910B029F5F90930B02F89464E0B7
:1005000089E30E94130280E093E00E94EB01C82F70
:1005100080918F01811103C000E010E015C047E019
:10052000C42E41E0D42E00E010E0AC2EB12C0A1510
:100530001B0594F70F5F1F4FC8019D5F0E94EB01E1
:10054000F60181936F01F3CF2091900130E080910B
:10055000150290911602281B390B0217130764F439
:100560000F5F1F4FC801875F9C4F0E94EB01F8018E
:10057000E057FE4F8083E8CFC0939001D0E0CE01DA
:100580008F5F9C4F0E94EB0180930502CE018E5F2E
:100590009C4F0E94EB018093060260E089E30E9479
:1005A00013027894F0FE2EC080910A028F5F809330
:1005B0000A0260E0809111020E94870088E40E9494
:1005C000E40180E00E94E401C82F61E08091110203
:1005D0000E9487008C2F90E0AC014E7F31E0452BCC
:1005E00009F030E02091060130FB20F936E09595C6
:1005F00087953A95E1F78370880F297F822B877F53
:1006000080930601DF91CF911F910F91FF90DF90B2
:10061000CF90BF90AF900895CF93DF93E898C0E05C
:10062000D1E08DEC91E09983888383B7817F83BF8C
:1006300083B7816083BFE4E6F0E0808181608083DE
:1006400080818460808380818062808380818064F7
:10065000808380818068808310920501109204015C
:10066000789483B7816083BF889583B78E7F83BF7B
:1006700010928000109285001092840081E0809397
:10068000810080936F0083B78E7F83BF80818071EC
:1006900080834FEF50E06FEF70E08FEF90E00E94AB
:1006A000CE0140E050E060E070E080E090E00E9429
:1006B000CE018DE592E099838883E9E6F0E08081C0
:1006C0008C7F81608083E89A7894DF91CF91089540
:1006D0001F920F920FB60F9211242F933F938F9377
:1006E0009F93AF93BF938091870190918801A091D0
:1006F0008901B0918A013091860123E0230F2D37C3
:1007000020F40196A11DB11D05C026E8230F029615
:10071000A11DB11D209386018093870190938801CC
:10072000A0938901B0938A0180918B0190918C01F3
:10073000A0918D01B0918E010196A11DB11D8093F4
:100740008B0190938C01A0938D01B0938E01BF918A
:10075000AF919F918F913F912F910F900FBE0F906E
:100760001F9018951F920F920FB60F9211242F937E
:100770003F934F935F936F937F938F939F93AF9329
:10078000BF93EF93FF93E0910201F091030109956C
:10079000FF91EF91BF91AF919F918F917F916F9159
:1007A0005F914F913F912F910F900FBE0F901F902F
:1007B00018951F920F920FB60F9211242F933F930B
:1007C0004F935F936F937F938F939F93AF93BF9359
:1007D000EF93FF93E0910001F09101010995FF91E2
:1007E000EF91BF91AF919F918F917F916F915F91A9
:1007F0004F913F912F910F900FBE0F901F90189522
:100800001F920F920FB60F9211242F933F934F9385
:100810005F936F937F938F939F93AF93BF93EF9368
:10082000FF93F8948091040190910501892B39F48C
:1008300081E090E0909305018093040114C08091C1
:100840000902811110C01092800080E090EB90931B
:1008500085008093840085E08093810081E080930F
:100860006F000E940C03FF91EF91BF91AF919F9198
:100870008F917F916F915F914F913F912F910F9049
:100880000FBE0F901F901895CF9386E090E0909345
:10089000100280930F0288E090E090931202809300
:1008A000110282E090E0909314028093130261E0C1
:1008B00086E00E94D30061E0809111020E94D30083
:1008C00060E0809113020E94D3008CB58F7D8CBDB7
:1008D0008CB5837F8CBDCFB7F89480910E028111C7
:1008E00027C0EEEAF0E08491EAE9F0E09491E82F85
:1008F000F0E0EE0FFF1FEA57FF4FA591B491EC9186
:10090000E92321F461E08AE00E94870061E08AE047
:100910000E94D3008CB580618CBD8CB580648CBD89
:1009200061E08DE00E94D30061E08BE00E94D30083
:1009300080910E028F5F80930E02CFBF8BE090E01C
:100940009093160280931502CF910895789484B500
:10095000826084BD84B5816084BD85B5826085BDBB
:1009600085B5816085BD80916E00816080936E0049
:10097000109281008091810082608093810080913B
:1009800081008160809381008091800081608093EC
:1009900080008091B10084608093B1008091B000AC
:1009A00081608093B00080917A00846080937A00A7
:1009B00080917A00826080937A0080917A008160D1
:1009C00080937A0080917A00806880937A001092F8
:1009D000C100F89417B861E085E00E94D30061E09F
:1009E00084E00E94D30061E083E00E94D30061E0D4
:1009F0008EE00E94870061E08FE00E94870061E046
:100A000080E10E94870061E081E10E94870040E070
:100A100050E060E070E080E090E00E94CE0160E095
:100A200080910F020E9487006AE070E080E090E011
:100A30000E94930161E080910F020E94870064E1AF
:100A400070E080E090E00E94930168E988E10E94F4
:100A5000130265E98EE20E94130263E080E092E0F7
:100A60000E94320261E081E092E00E94320260E87E
:100A700082E092E00E94320260E986E092E00E9409
:100A8000320260E887E092E00E94320260E188E092
:100A900092E00E94320261E280E292E00E94320221
:100AA00060E88AE30E94130260E68FE30E9413026B
:100AB00060E48EE30E94130266EF82E30E94130259
:100AC00063E180E092E00E94320264E086E30E94EB
:100AD000130260E086E30E94130261E070E080E0B0
:100AE00090E00E94930167E082E00E9413026FEDA4
:100AF00081E00E94130263E180E092E00E943202F2
:100B000062E484E00E94130262E083E00E94130228
:100B100061E080E00E94130221E020938F0186B102
:100B200090E0809590958F70992790930D02809317
:100B30000C02AC01440F551F840F951F90930802BF
:100B4000809307021092800080E090EB90938500E4
:100B50008093840085E08093810020936F000E9441
:100B60000C03C0E0D0E011E080910C0290910D02E6
:100B70000F9709F08DC040E050E060E070E08FEF2B
:100B800090E00E94CE016AEF70E080E090E00E9469
:100B9000930140E050E060E070E080E090E00E946F
:100BA000CE016DE270E080E090E00E94930140E0B1
:100BB00050E06FEF70E080E090E00E94CE016AEFBD
:100BC00070E080E090E00E94930140E050E060E03F
:100BD00070E080E090E00E94CE016DE270E080E085
:100BE00090E00E9493014FEF50E060E070E080E001
:100BF00090E00E94CE016AEF70E080E090E00E94F9
:100C0000930140E050E060E070E080E090E00E94FE
:100C1000CE016DE270E080E090E00E94930140E040
:100C200050E067ED70E08FEF90E00E94CE016AEF38
:100C300070E080E090E00E94930140E050E060E0CE
:100C400070E080E090E00E94CE0162E370E080E01E
:100C500090E00E94930147ED50E06FEF70E08FEF5E
:100C600090E00E94CE016AEF70E080E090E00E9488
:100C7000930140E050E060E070E080E090E00E948E
:100C8000CE0162E370E080E090E00E9493011FC01B
:100C900080910B028823B1F010920B02109309028D
:100CA000E0910702F0910802E057FE4F438150E0C7
:100CB000628170E0818190E00E94CE0161E08DE070
:100CC0000E94130280910A02811110920A02209759
:100CD00009F44ACF0E94000047CFEE0FFF1F059096
:0A0CE000F491E02D0994F894FFCF81
:040CEA00CD01CD016A
:00000001FF
