:100000000C945D000C94DB030C94B4030C948500F9
:100010000C9485000C9485000C9485000C9485004C
:100020000C9485000C9485000C9485000C9485003C
:100030000C9485000C9402040C9485000C948500AB
:100040000C946A030C9485000C9485000C94850034
:100050000C9485000C9485000C9485000C9485000C
:100060000C9485000C9485000000000025002800F9
:100070002B0000000008000201000003040700003C
:1000800000000000000000000000240027002A00FB
:10009000010204081020408001020408102001021F
:1000A00004081020040404040404040402020202EC
:1000B0000202030303030303480411241FBECFEF0E
:1000C000D8E0DEBFCDBF11E0A0E0B1E0ECE5FDE09F
:1000D00002C005900D92A630B107D9F722E0A6E044
:1000E000B1E001C01D92A731B207E1F710E0CDE504
:1000F000D0E004C02197FE010E94A606CC35D107AE
:10010000C9F70E94AA040C94AC060C94000090E07D
:10011000FC01EE58FF4F3491FC01E057FF4F249152
:10012000FC01EC55FF4FE491EE2309F43BC033236F
:1001300039F1333091F038F43130A9F0323001F533
:1001400084B58F7D12C0373091F03830A1F0343053
:10015000B9F4809180008F7D03C0809180008F77FB
:10016000809380000DC084B58F7784BD09C08091D5
:10017000B0008F7703C08091B0008F7D8093B00076
:10018000F0E0EE0FFF1FE859FF4FA591B4918FB734
:10019000F894EC91611103C020952E2301C02E2B01
:1001A0002C938FBF0895CF93DF9390E0FC01E0572D
:1001B000FF4F2491FC01EC55FF4F8491882361F19E
:1001C00090E0880F991FFC01EA57FF4FC591D49129
:1001D000FC01E859FF4FA591B491611109C09FB787
:1001E000F8948881209582238883EC912E230BC07C
:1001F000623061F49FB7F8943881822F8095832311
:100200008883EC912E2B2C939FBF06C08FB7F89458
:10021000E8812E2B28838FBFDF91CF9108951F9304
:10022000CF93DF93182FEB0161E00E94D30020975A
:1002300011F460E004C0CF3FD10539F461E0812FB3
:10024000DF91CF911F910C948700E12FF0E0EE58E1
:10025000FF4FE491E330F9F048F4E130B9F0E230D7
:10026000A1F584B5806284BDC8BD34C0E730E9F033
:10027000E83019F1E43049F5809180008062809384
:100280008000D0938B00C0938A0024C084B580681E
:1002900084BDC7BD1FC080918000806880938000AE
:1002A000D0938900C093880015C08091B000806809
:1002B0008093B000C093B3000DC08091B000806205
:1002C0008093B000C093B40005C0C038D1050CF0D5
:1002D000B5CFAFCFDF91CF911F9108953FB7F8947D
:1002E0008091870190918801A0918901B0918A0144
:1002F00026B5A89B05C02F3F19F00196A11DB11D81
:100300003FBFBA2FA92F982F8827820F911DA11DBB
:10031000B11DBC01CD0142E0660F771F881F991FF8
:100320004A95D1F708958F929F92AF92BF92CF9244
:10033000DF92EF92FF926B017C010E946E014B01F4
:100340005C01C114D104E104F104F1F00E946E01DA
:10035000DC01CB0188199909AA09BB09883E9340A1
:10036000A105B10570F321E0C21AD108E108F10836
:1003700088EE880E83E0981EA11CB11CC114D10424
:10038000E104F10419F7DDCFFF90EF90DF90CF90FB
:10039000BF90AF909F908F90089508950F931F93F3
:1003A000CF93DF938B01EA01BC0183E00E940F0130
:1003B000B80184E00E940F01BE0185E0DF91CF917A
:1003C0001F910F910C940F018EBD00000DB407FE1C
:1003D000FDCF8EB508950F931F93CF93DF938C01BC
:1003E000CFE0D2E060E08A810E948700C80123E06C
:1003F000969587952A95E1F780680E94E401802F01
:100400008295880F807E0E94E40180E00E94E401D2
:10041000182F61E08A810E948700812FDF91CF91A0
:100420001F910F9108950F931F93CF93DF93C82FC0
:10043000D62F0FE012E060E0F80182810E94870071
:10044000CC0F8C2F8E7781600E94E4018D2F0E944B
:10045000E40161E0F8018281DF91CF911F910F915A
:100460000C948700FF920F931F93CF93DF93EC01BF
:10047000F62E0FE012E060E0F80182810E94870012
:10048000CE0123E0969587952A95E1F780680E9432
:10049000E4018C2F8295880F807E80610E94E401A8
:1004A0008F2D0E94E40161E0F8018281DF91CF91FC
:1004B0001F910F91FF900C948700AF92BF92CF9243
:1004C000DF92FF920F931F93CF93DF9360E08091B1
:1004D00011020E94870082E60E94E40180E00E94EF
:1004E000E401F82E61E0809111020E948700F3FE82
:1004F00059C090910A029F5F90930A02F89464E0B9
:1005000089E30E94130280E093E00E94EB01C82F70
:1005100080918B01811103C000E010E015C047E01D
:10052000C42E41E0D42E00E010E0AC2EB12C0A1510
:100530001B0594F70F5F1F4FC8019D5F0E94EB01E1
:10054000F60181936F01F3CF2091900130E080910B
:10055000150290911602281B390B0217130764F439
:100560000F5F1F4FC801875F9C4F0E94EB01F8018E
:10057000E057FE4F8083E8CFC0939001D0E0CE01DA
:100580008F5F9C4F0E94EB0180930502CE018E5F2E
:100590009C4F0E94EB018093060260E089E30E9479
:1005A00013027894F0FE2EC0809109028F5F809331
:1005B000090260E0809111020E94870088E40E9495
:1005C000E40180E00E94E401C82F61E08091110203
:1005D0000E9487008C2F90E0AC014E7F31E0452BCC
:1005E00009F030E02091060130FB20F936E09595C6
:1005F00087953A95E1F78370880F297F822B877F53
:1006000080930601DF91CF911F910F91FF90DF90B2
:10061000CF90BF90AF900895CF93DF93E898C2E05A
:10062000D1E08DEC91E09983888340E050E060E078
:1006300070E080E090E00E94CE0183B7817F83BFAD
:1006400083B7816083BFE4E6F0E0808181608083CE
:1006500080818460808380818062808380818064E7
:100660008083808180688083109201011092000154
:10067000789483B7816083BF889583B78E7F83BF6B
:100680001092800080E090E8909385008093840031
:1006900081E08093810080936F0083B78E7F83BF5A
:1006A00080818071808340E050E06FEF70E080E0F7
:1006B00090E00E94CE018DE592E099838883E9E67F
:1006C000F0E080818C7F81608083E89A7894DF916C
:1006D000CF9108951F920F920FB60F9211242F936E
:1006E0003F938F939F93AF93BF9380918C01909191
:1006F0008D01A0918E01B0918F013091860123E090
:10070000230F2D3720F40196A11DB11D05C026E849
:10071000230F0296A11DB11D2093860180938C01A9
:1007200090938D01A0938E01B0938F0180918701EA
:1007300090918801A0918901B0918A010196A11D33
:10074000B11D8093870190938801A0938901B09394
:100750008A01BF91AF919F918F913F912F910F90FF
:100760000FBE0F901F9018951F920F920FB60F9209
:1007700011242F933F934F935F936F937F938F93A6
:100780009F93AF93BF93EF93FF93E0910401F09198
:1007900005010995FF91EF91BF91AF919F918F91C5
:1007A0007F916F915F914F913F912F910F900FBE6D
:1007B0000F901F9018951F920F920FB60F92112451
:1007C0002F933F934F935F936F937F938F939F9359
:1007D000AF93BF93EF93FF93E0910201F091030178
:1007E0000995FF91EF91BF91AF919F918F917F916B
:1007F0006F915F914F913F912F910F900FBE0F908E
:100800001F9018951F920F920FB60F9211242F93DD
:100810003F934F935F936F937F938F939F93AF9388
:10082000BF93EF93FF93F8948091000190910101A1
:10083000892B39F481E090E09093010180930001CD
:1008400016C080910D02811111C01092800080E0CD
:1008500090ED909385008093840085E080938100E3
:1008600081E080936F000E940C0301C07894FF9197
:10087000EF91BF91AF919F918F917F916F915F9118
:100880004F913F912F910F900FBE0F901F90189591
:10089000CF9386E090E09093100280930F0288E05F
:1008A00090E0909312028093110282E090E0909386
:1008B00014028093130261E086E00E94D30061E09D
:1008C000809111020E94D30060E0809113020E9487
:1008D000D3008CB58F7D8CBD8CB5837F8CBDCFB79D
:1008E000F89480910E02811127C0EEEAF0E0849125
:1008F000EAE9F0E09491E82FF0E0EE0FFF1FEA57ED
:10090000FF4FA591B491EC91E92321F461E08AE0D5
:100910000E94870061E08AE00E94D3008CB580616C
:100920008CBD8CB580648CBD61E08DE00E94D300ED
:1009300061E08BE00E94D30080910E028F5F809374
:100940000E02CFBF8BE090E09093160280931502C9
:10095000CF910895789484B5826084BD84B5816018
:1009600084BD85B5826085BD85B5816085BD80917A
:100970006E00816080936E001092810080918100F2
:1009800082608093810080918100816080938100EA
:10099000809180008160809380008091B1008460AC
:1009A0008093B1008091B00081608093B00080910D
:1009B0007A00846080937A0080917A0082608093CC
:1009C0007A0080917A00816080937A0080917A0029
:1009D000806880937A001092C100F89417B861E0A3
:1009E00085E00E94D30061E084E00E94D30061E0D2
:1009F00083E00E94D30061E08EE00E94870061E006
:100A00008FE00E94870061E080E10E94870061E042
:100A100081E10E94870040E050E06FEF70E080E0ED
:100A200090E00E94CE0160E080910F020E9487005A
:100A30006AE070E080E090E00E94930161E08091C4
:100A40000F020E94870064E170E080E090E00E9465
:100A5000930168E988E10E94130265E98EE20E9431
:100A6000130263E080E092E00E94320261E081E0E4
:100A700092E00E94320260E882E092E00E9432023C
:100A800060E986E092E00E94320260E887E092E04E
:100A90000E94320260E188E092E00E94320261E24C
:100AA00080E292E00E94320260E88AE30E94130230
:100AB00060E68FE30E94130260E48EE30E9413025B
:100AC00066EF82E30E94130263E180E092E00E94FD
:100AD000320264E086E30E94130260E086E30E9433
:100AE000130261E070E080E090E00E94930167E013
:100AF00082E00E9413026FED81E00E94130263E125
:100B000080E092E00E94320262E484E00E941302DC
:100B100062E083E00E94130261E080E00E94130221
:100B200081E080938B0186B190E0809590958F70E5
:100B3000992790930C0280930B029C01220F331F84
:100B4000820F931F90930802809307028DE592E035
:100B50009093030180930201809169008C7F8160F2
:100B600080936900E89A7894C0E0D0ED55E0E52ED6
:100B7000FF24F39400E010E0DD24D3942FB7F89421
:100B800080918C0190918D01A0918E01B0918F0187
:100B90002FBF853F9140A105B10528F080910D023E
:100BA000882309F4C6C080910B0290910C020F9724
:100BB00009F08DC040E050E060E070E08FEF90E021
:100BC0000E94CE016AEF70E080E090E00E94930105
:100BD00040E050E060E070E080E090E00E94CE01F4
:100BE0006DE270E080E090E00E94930140E050E010
:100BF0006FEF70E080E090E00E94CE016AEF70E05D
:100C000080E090E00E94930140E050E060E070E0FE
:100C100080E090E00E94CE016DE270E080E090E024
:100C20000E9493014FEF50E060E070E080E090E0C0
:100C30000E94CE016AEF70E080E090E00E94930194
:100C400040E050E060E070E080E090E00E94CE0183
:100C50006DE270E080E090E00E94930140E050E09F
:100C600067ED70E08FEF90E00E94CE016AEF70E0D8
:100C700080E090E00E94930140E050E060E070E08E
:100C800080E090E00E94CE0162E370E080E090E0BE
:100C90000E94930147ED50E06FEF70E08FEF90E01E
:100CA0000E94CE016AEF70E080E090E00E94930124
:100CB00040E050E060E070E080E090E00E94CE0113
:100CC00062E370E080E090E00E9493012BC080918D
:100CD0000A02882311F110920A02D0920D02E091CB
:100CE0000702F0910802E057FE4F81818F70628108
:100CF0006F7043814F7091E1499FA001112421E160
:100D0000629FB001112421E1829FC00111240E9441
:100D1000CE0161E08DE00E941302809109028111F1
:100D2000109209020115110509F428CF0E94000054
:100D300025CF10928000D0938500C0938400E0926C
:100D40008100F0926F000E940C032DCFEE0FFF1F69
:0C0D50000590F491E02D0994F894FFCF79
:060D5C000100CD01CD01F4
:00000001FF
