:100000000C945D000C94C9030C94A2030C9485001D
:100010000C9485000C9485000C9485000C9485004C
:100020000C9485000C9485000C9485000C9485003C
:100030000C9485000C94F0030C9485000C948500BE
:100040000C9458030C9485000C9485000C94850046
:100050000C9485000C9485000C9485000C9485000C
:100060000C9485000C9485000000000025002800F9
:100070002B0000000008000201000003040700003C
:1000800000000000000000000000240027002A00FB
:10009000010204081020408001020408102001021F
:1000A00004081020040404040404040402020202EC
:1000B0000202030303030303340411241FBECFEF22
:1000C000D8E0DEBFCDBF11E0A0E0B1E0E8E0FCE0A9
:1000D00002C005900D92A630B107D9F722E0A6E044
:1000E000B1E001C01D92A931B207E1F710E0CDE502
:1000F000D0E004C02197FE010E94FC05CC35D10759
:10010000C9F70E9496040C9402060C94000090E03B
:10011000FC01EE58FF4F3491FC01E057FF4F249152
:10012000FC01EC55FF4FE491EE2309F43BC033236F
:1001300039F1333091F038F43130A9F0323001F533
:1001400084B58F7D12C0373091F03830A1F0343053
:10015000B9F4809180008F7D03C0809180008F77FB
:10016000809380000DC084B58F7784BD09C08091D5
:10017000B0008F7703C08091B0008F7D8093B00076
:10018000F0E0EE0FFF1FE859FF4FA591B4918FB734
:10019000F894EC91611103C020952E2301C02E2B01
:1001A0002C938FBF0895CF93DF9390E0FC01E0572D
:1001B000FF4F2491FC01EC55FF4F8491882361F19E
:1001C00090E0880F991FFC01EA57FF4FC591D49129
:1001D000FC01E859FF4FA591B491611109C09FB787
:1001E000F8948881209582238883EC912E230BC07C
:1001F000623061F49FB7F8943881822F8095832311
:100200008883EC912E2B2C939FBF06C08FB7F89458
:10021000E8812E2B28838FBFDF91CF9108951F9304
:10022000CF93DF93182FEB0161E00E94D30020975A
:1002300011F460E004C0CF3FD10539F461E0812FB3
:10024000DF91CF911F910C948700E12FF0E0EE58E1
:10025000FF4FE491E330F9F048F4E130B9F0E230D7
:10026000A1F584B5806284BDC8BD34C0E730E9F033
:10027000E83019F1E43049F5809180008062809384
:100280008000D0938B00C0938A0024C084B580681E
:1002900084BDC7BD1FC080918000806880938000AE
:1002A000D0938900C093880015C08091B000806809
:1002B0008093B000C093B3000DC08091B000806205
:1002C0008093B000C093B40005C0C038D1050CF0D5
:1002D000B5CFAFCFDF91CF911F9108953FB7F8947D
:1002E0008091870190918801A0918901B0918A0144
:1002F00026B5A89B05C02F3F19F00196A11DB11D81
:100300003FBFBA2FA92F982F8827820F911DA11DBB
:10031000B11DBC01CD0142E0660F771F881F991FF8
:100320004A95D1F708958F929F92AF92BF92CF9244
:10033000DF92EF92FF926B017C010E946E014B01F4
:100340005C01C114D104E104F104F1F00E946E01DA
:10035000DC01CB0188199909AA09BB09883E9340A1
:10036000A105B10570F321E0C21AD108E108F10836
:1003700088EE880E83E0981EA11CB11CC114D10424
:10038000E104F10419F7DDCFFF90EF90DF90CF90FB
:10039000BF90AF909F908F90089508950F931F93F3
:1003A000CF93DF938B01EA01BC0183E00E940F0130
:1003B000B80184E00E940F01BE0185E0DF91CF917A
:1003C0001F910F910C940F018EBD00000DB407FE1C
:1003D000FDCF8EB508950F931F93CF93DF938C01BC
:1003E000C1E1D2E060E08A810E948700C80123E079
:1003F000969587952A95E1F780680E94E401802F01
:100400008295880F807E0E94E40180E00E94E401D2
:10041000182F61E08A810E948700812FDF91CF91A0
:100420001F910F9108950F931F93CF93DF93C82FC0
:10043000D62F01E112E060E0F80182810E9487007E
:10044000CC0F8C2F8E7781600E94E4018D2F0E944B
:10045000E40161E0F8018281DF91CF911F910F915A
:100460000C948700FF920F931F93CF93DF93EC01BF
:10047000F62E01E112E060E0F80182810E9487001F
:10048000CE0123E0969587952A95E1F780680E9432
:10049000E4018C2F8295880F807E80610E94E401A8
:1004A0008F2D0E94E40161E0F8018281DF91CF91FC
:1004B0001F910F91FF900C948700AF92BF92CF9243
:1004C000DF92FF920F931F93CF93DF9360E08091B1
:1004D00013020E94870082E60E94E40180E00E94ED
:1004E000E401F82E61E0809113020E948700F3FE80
:1004F00059C090910E029F5F90930E02F89464E0B1
:1005000089E30E94130280E093E00E94EB01C82F70
:1005100080918B01811103C000E010E015C047E01D
:10052000C42E41E0D42E00E010E0AC2EB12C0A1510
:100530001B0594F70F5F1F4FC8019D5F0E94EB01E1
:10054000F60181936F01F3CF2091940130E0809107
:10055000170290911802281B390B0217130764F435
:100560000F5F1F4FC801875F9C4F0E94EB01F8018E
:10057000EC56FE4F8083E8CFC0939401D0E0CE01CB
:100580008F5F9C4F0E94EB0180930902CE018E5F2A
:100590009C4F0E94EB0180930A0260E089E30E9475
:1005A00013027894F0FE2EC080910D028F5F80932D
:1005B0000D0260E0809113020E94870088E40E948F
:1005C000E40180E00E94E401C82F61E08091130201
:1005D0000E9487008C2F90E0AC014E7F31E0452BCC
:1005E00009F030E02091060130FB20F936E09595C6
:1005F00087953A95E1F78370880F297F822B877F53
:1006000080930601DF91CF911F910F91FF90DF90B2
:10061000CF90BF90AF900895E898A2E0B1E08DEC44
:1006200091E011969C938E9383B7817F83BF83B7AC
:10063000816083BFE4E6F0E0808181608083808117
:1006400084608083808180628083808180648083F5
:10065000808180688083109201011092000178945B
:1006600083B7816083BF889583B78E7F83BF1092E5
:10067000800080E090E8909385008093840081E082
:100680008093810080936F0083B78E7F83BF8081CA
:10069000807180838DE592E011969C938E93E9E6BC
:1006A000F0E080818C7F81608083E89A789408955F
:1006B0001F920F920FB60F9211242F933F938F9397
:1006C0009F93AF93BF938091900190919101A091DE
:1006D0009201B09193013091860123E0230F2D37D1
:1006E00020F40196A11DB11D05C026E8230F029636
:1006F000A11DB11D209386018093900190939101DB
:10070000A0939201B0939301809187019091880109
:10071000A0918901B0918A010196A11DB11D80931C
:10072000870190938801A0938901B0938A01BF91BA
:10073000AF919F918F913F912F910F900FBE0F908E
:100740001F9018951F920F920FB60F9211242F939E
:100750003F934F935F936F937F938F939F93AF9349
:10076000BF93EF93FF93E0910401F0910501099588
:10077000FF91EF91BF91AF919F918F917F916F9179
:100780005F914F913F912F910F900FBE0F901F904F
:1007900018951F920F920FB60F9211242F933F932B
:1007A0004F935F936F937F938F939F93AF93BF9379
:1007B000EF93FF93E0910201F09103010995FF91FE
:1007C000EF91BF91AF919F918F917F916F915F91C9
:1007D0004F913F912F910F900FBE0F901F90189542
:1007E0001F920F920FB60F9211242F933F934F93A6
:1007F0005F936F937F938F939F93AF93BF93EF9389
:10080000FF93F8948091000190910101892B39F4B4
:1008100081E090E0909301018093000114C08091E9
:100820000F0281110FC0109280001092850010926B
:10083000840085E08093810081E080936F000E94B6
:100840000C0301C07894FF91EF91BF91AF919F91FC
:100850008F917F916F915F914F913F912F910F9069
:100860000FBE0F901F901895CF9386E090E0909365
:1008700012028093110288E090E09093140280931A
:10088000130282E090E0909316028093150261E0DB
:1008900086E00E94D30061E0809113020E94D300A1
:1008A00060E0809115020E94D3008CB58F7D8CBDD5
:1008B0008CB5837F8CBDCFB7F894809110028111E5
:1008C00027C0EEEAF0E08491EAE9F0E09491E82FA5
:1008D000F0E0EE0FFF1FEA57FF4FA591B491EC91A6
:1008E000E92321F461E08AE00E94870061E08AE068
:1008F0000E94D3008CB580618CBD8CB580648CBDAA
:1009000061E08DE00E94D30061E08BE00E94D300A3
:10091000809110028F5F80931002CFBF8BE090E038
:100920009093180280931702CF910895789484B51C
:10093000826084BD84B5816084BD85B5826085BDDB
:1009400085B5816085BD80916E00816080936E0069
:10095000109281008091810082608093810080915B
:10096000810081608093810080918000816080930C
:1009700080008091B10084608093B1008091B000CC
:1009800081608093B00080917A00846080937A00C7
:1009900080917A00826080937A0080917A008160F1
:1009A00080937A0080917A00806880937A00109218
:1009B000C100F89417B861E085E00E94D30061E0BF
:1009C00084E00E94D30061E083E00E94D30061E0F4
:1009D0008EE00E94870061E08FE00E94870061E066
:1009E00080E10E94870061E081E10E94870040E091
:1009F00050E060E070E080E090E00E94CE0160E0B6
:100A0000809111020E9487006AE070E080E090E02F
:100A10000E94930161E0809111020E94870064E1CD
:100A200070E080E090E00E94930168E988E10E9414
:100A3000130265E98EE20E94130263E080E092E017
:100A40000E94320261E081E092E00E94320260E89E
:100A500082E092E00E94320260E986E092E00E9429
:100A6000320260E887E092E00E94320260E188E0B2
:100A700092E00E94320261E280E292E00E94320241
:100A800060E88AE30E94130260E68FE30E9413028B
:100A900060E48EE30E94130266EF82E30E94130279
:100AA00063E180E092E00E94320264E086E30E940B
:100AB000130260E086E30E94130261E070E080E0D0
:100AC00090E00E94930167E082E00E9413026FEDC4
:100AD00081E00E94130263E180E092E00E94320212
:100AE00062E484E00E94130262E083E00E94130249
:100AF00061E080E00E94130281E080938B0186B167
:100B000090E0809590958F70992790938F018093B6
:100B10008E0190938D0180938C019C01220F331FD5
:100B2000820F931F90930C0280930B028DE592E04D
:100B30009093030180930201809169008C7F816012
:100B400080936900E89A789405E011E0C0E0D0E075
:100B5000FF24F39480910F02811110C02FB7F894F5
:100B60008091900190919101A0919201B091930197
:100B70002FBF853F9140A105B10588F580910E02F8
:100B8000882311F110920E02F0920F02E0910B02F5
:100B9000F0910C02EC56FE4F81818F7062816F7074
:100BA00043814F7091E1499FA001112421E1629F8F
:100BB000B001112421E1829FC00111240E94CE01C5
:100BC00061E08DE00E94130280910D02811110926C
:100BD0000D02209709F4BECF0E940000BBCF1092F7
:100BE0008000109285001092840000938100109381
:100BF0006F000E940C03C2CFEE0FFF1F0590F4910F
:080C0000E02D0994F894FFCFE8
:060C08000100CD01CD0149
:00000001FF
